{
  "contractName": "ERC721Connector",
  "abi": [
    {
      "inputs": [
        {
          "internalType": "string",
          "name": "name",
          "type": "string"
        },
        {
          "internalType": "string",
          "name": "symbol",
          "type": "string"
        }
      ],
      "stateMutability": "nonpayable",
      "type": "constructor"
    },
    {
      "anonymous": false,
      "inputs": [
        {
          "indexed": true,
          "internalType": "address",
          "name": "_owner",
          "type": "address"
        },
        {
          "indexed": true,
          "internalType": "address",
          "name": "_approved",
          "type": "address"
        },
        {
          "indexed": true,
          "internalType": "uint256",
          "name": "_tokenId",
          "type": "uint256"
        }
      ],
      "name": "Approval",
      "type": "event"
    },
    {
      "anonymous": false,
      "inputs": [
        {
          "indexed": true,
          "internalType": "address",
          "name": "_from",
          "type": "address"
        },
        {
          "indexed": true,
          "internalType": "address",
          "name": "_to",
          "type": "address"
        },
        {
          "indexed": true,
          "internalType": "uint256",
          "name": "_tokenId",
          "type": "uint256"
        }
      ],
      "name": "Transfer",
      "type": "event"
    },
    {
      "inputs": [
        {
          "internalType": "address",
          "name": "_to",
          "type": "address"
        },
        {
          "internalType": "uint256",
          "name": "_tokenId",
          "type": "uint256"
        }
      ],
      "name": "approve",
      "outputs": [],
      "stateMutability": "nonpayable",
      "type": "function"
    },
    {
      "inputs": [
        {
          "internalType": "address",
          "name": "_owner",
          "type": "address"
        }
      ],
      "name": "balanceOf",
      "outputs": [
        {
          "internalType": "uint256",
          "name": "",
          "type": "uint256"
        }
      ],
      "stateMutability": "view",
      "type": "function"
    },
    {
      "inputs": [
        {
          "internalType": "uint256",
          "name": "_tokenId",
          "type": "uint256"
        }
      ],
      "name": "getApproved",
      "outputs": [
        {
          "internalType": "address",
          "name": "",
          "type": "address"
        }
      ],
      "stateMutability": "view",
      "type": "function"
    },
    {
      "inputs": [],
      "name": "name",
      "outputs": [
        {
          "internalType": "string",
          "name": "",
          "type": "string"
        }
      ],
      "stateMutability": "view",
      "type": "function"
    },
    {
      "inputs": [
        {
          "internalType": "uint256",
          "name": "_tokenId",
          "type": "uint256"
        }
      ],
      "name": "ownerOf",
      "outputs": [
        {
          "internalType": "address",
          "name": "",
          "type": "address"
        }
      ],
      "stateMutability": "view",
      "type": "function"
    },
    {
      "inputs": [
        {
          "internalType": "bytes4",
          "name": "interfaceId",
          "type": "bytes4"
        }
      ],
      "name": "supportsInterface",
      "outputs": [
        {
          "internalType": "bool",
          "name": "",
          "type": "bool"
        }
      ],
      "stateMutability": "view",
      "type": "function"
    },
    {
      "inputs": [],
      "name": "symbol",
      "outputs": [
        {
          "internalType": "string",
          "name": "",
          "type": "string"
        }
      ],
      "stateMutability": "view",
      "type": "function"
    },
    {
      "inputs": [
        {
          "internalType": "uint256",
          "name": "index",
          "type": "uint256"
        }
      ],
      "name": "tokenByIndex",
      "outputs": [
        {
          "internalType": "uint256",
          "name": "",
          "type": "uint256"
        }
      ],
      "stateMutability": "view",
      "type": "function"
    },
    {
      "inputs": [
        {
          "internalType": "address",
          "name": "owner",
          "type": "address"
        },
        {
          "internalType": "uint256",
          "name": "index",
          "type": "uint256"
        }
      ],
      "name": "tokenOfOwnerByIndex",
      "outputs": [
        {
          "internalType": "uint256",
          "name": "",
          "type": "uint256"
        }
      ],
      "stateMutability": "view",
      "type": "function"
    },
    {
      "inputs": [],
      "name": "totalSupply",
      "outputs": [
        {
          "internalType": "uint256",
          "name": "",
          "type": "uint256"
        }
      ],
      "stateMutability": "view",
      "type": "function"
    },
    {
      "inputs": [
        {
          "internalType": "address",
          "name": "_from",
          "type": "address"
        },
        {
          "internalType": "address",
          "name": "_to",
          "type": "address"
        },
        {
          "internalType": "uint256",
          "name": "_tokenId",
          "type": "uint256"
        }
      ],
      "name": "transferFrom",
      "outputs": [],
      "stateMutability": "nonpayable",
      "type": "function"
    }
  ],
  "bytecode": "0x60806040523480156200001157600080fd5b5060405162001b3538038062001b35833981810160405281019062000037919062000508565b81816200006a7f01ffc9a7a5cef8baa21ed3c5c0d7e23accb804b619e9333b597f47a0d84076e2620001e360201b60201c565b620000bd7f13b182f4c0e5b2efbac0efe6cf6d756c8b89f4b79c5707a043ed9ea740574ee97f7feaf19471f34a12a7eaf32d5f3090aa2260ea8624dc8a138e74e0bf0f62307618620001e360201b60201c565b8160019080519060200190620000d5929190620002bb565b508060029080519060200190620000ee929190620002bb565b505050620001667f22c82707ba960a14c7592ffb6b8cfaa073fed0048a84cc7fa41f6b5bd8e7f2e47f3a6eb71757dfc6e784c1459d26270140c2c147d95ca985c80026fc5301c3eca17f8a7e378434598edc36d108689a030cbc9d7d465de4f74c71bae1028eed6a881b1818620001e360201b60201c565b620001db7f8230223f691b981717299fae9549350a0d894555723531f02108b1f522c1a7977f6da5e1284143cdd2d15038a59bde3be031250f00291d64494c12d967b3a4e0c37fc53637662700e6c65104059db8bba34439e0c32483ab7c34e3ccae52c73954951818620001e360201b60201c565b505062000675565b63ffffffff60e01b817bffffffffffffffffffffffffffffffffffffffffffffffffffffffff191614156200024f576040517f08c379a00000000000000000000000000000000000000000000000000000000081526004016200024690620005ee565b60405180910390fd5b6001600080837bffffffffffffffffffffffffffffffffffffffffffffffffffffffff19167bffffffffffffffffffffffffffffffffffffffffffffffffffffffff1916815260200190815260200160002060006101000a81548160ff02191690831515021790555050565b828054620002c9906200063f565b90600052602060002090601f016020900481019282620002ed576000855562000339565b82601f106200030857805160ff191683800117855562000339565b8280016001018555821562000339579182015b82811115620003385782518255916020019190600101906200031b565b5b5090506200034891906200034c565b5090565b5b80821115620003675760008160009055506001016200034d565b5090565b6000604051905090565b600080fd5b600080fd5b600080fd5b600080fd5b6000601f19601f8301169050919050565b7f4e487b7100000000000000000000000000000000000000000000000000000000600052604160045260246000fd5b620003d48262000389565b810181811067ffffffffffffffff82111715620003f657620003f56200039a565b5b80604052505050565b60006200040b6200036b565b9050620004198282620003c9565b919050565b600067ffffffffffffffff8211156200043c576200043b6200039a565b5b620004478262000389565b9050602081019050919050565b60005b838110156200047457808201518184015260208101905062000457565b8381111562000484576000848401525b50505050565b6000620004a16200049b846200041e565b620003ff565b905082815260208101848484011115620004c057620004bf62000384565b5b620004cd84828562000454565b509392505050565b600082601f830112620004ed57620004ec6200037f565b5b8151620004ff8482602086016200048a565b91505092915050565b6000806040838503121562000522576200052162000375565b5b600083015167ffffffffffffffff8111156200054357620005426200037a565b5b6200055185828601620004d5565b925050602083015167ffffffffffffffff8111156200057557620005746200037a565b5b6200058385828601620004d5565b9150509250929050565b600082825260208201905092915050565b7f455243313635202d20696e76616c696420696e74657266616365000000000000600082015250565b6000620005d6601a836200058d565b9150620005e3826200059e565b602082019050919050565b600060208201905081810360008301526200060981620005c7565b9050919050565b7f4e487b7100000000000000000000000000000000000000000000000000000000600052602260045260246000fd5b600060028204905060018216806200065857607f821691505b602082108114156200066f576200066e62000610565b5b50919050565b6114b080620006856000396000f3fe608060405234801561001057600080fd5b50600436106100a95760003560e01c806323b872dd1161007157806323b872dd146101665780632f745c59146101825780634f6ccce7146101b25780636352211e146101e257806370a082311461021257806395d89b4114610242576100a9565b806301ffc9a7146100ae57806306fdde03146100de578063081812fc146100fc578063095ea7b31461012c57806318160ddd14610148575b600080fd5b6100c860048036038101906100c39190610bfb565b610260565b6040516100d59190610c43565b60405180910390f35b6100e66102c7565b6040516100f39190610cf7565b60405180910390f35b61011660048036038101906101119190610d4f565b610359565b6040516101239190610dbd565b60405180910390f35b61014660048036038101906101419190610e04565b6103de565b005b61015061057a565b60405161015d9190610e53565b60405180910390f35b610180600480360381019061017b9190610e6e565b610587565b005b61019c60048036038101906101979190610e04565b6105aa565b6040516101a99190610e53565b60405180910390f35b6101cc60048036038101906101c79190610d4f565b61065a565b6040516101d99190610e53565b60405180910390f35b6101fc60048036038101906101f79190610d4f565b6106cb565b6040516102099190610dbd565b60405180910390f35b61022c60048036038101906102279190610ec1565b61077d565b6040516102399190610e53565b60405180910390f35b61024a610835565b6040516102579190610cf7565b60405180910390f35b6000806000837bffffffffffffffffffffffffffffffffffffffffffffffffffffffff19167bffffffffffffffffffffffffffffffffffffffffffffffffffffffff1916815260200190815260200160002060009054906101000a900460ff169050919050565b6060600180546102d690610f1d565b80601f016020809104026020016040519081016040528092919081815260200182805461030290610f1d565b801561034f5780601f106103245761010080835404028352916020019161034f565b820191906000526020600020905b81548152906001019060200180831161033257829003601f168201915b5050505050905090565b6000610364826108c7565b6103a3576040517f08c379a000000000000000000000000000000000000000000000000000000000815260040161039a90610fc1565b60405180910390fd5b6005600083815260200190815260200160002060009054906101000a900473ffffffffffffffffffffffffffffffffffffffff169050919050565b60006103e9826106cb565b90508273ffffffffffffffffffffffffffffffffffffffff168173ffffffffffffffffffffffffffffffffffffffff16141561045a576040517f08c379a000000000000000000000000000000000000000000000000000000000815260040161045190611053565b60405180910390fd5b8073ffffffffffffffffffffffffffffffffffffffff163373ffffffffffffffffffffffffffffffffffffffff16146104c8576040517f08c379a00000000000000000000000000000000000000000000000000000000081526004016104bf906110e5565b60405180910390fd5b826005600084815260200190815260200160002060006101000a81548173ffffffffffffffffffffffffffffffffffffffff021916908373ffffffffffffffffffffffffffffffffffffffff160217905550818373ffffffffffffffffffffffffffffffffffffffff168273ffffffffffffffffffffffffffffffffffffffff167f8c5be1e5ebec7d5bd14f71427d1e84f3dd0314c0f7b2291e5b200ac8c7c3b92560405160405180910390a4505050565b6000600680549050905090565b6105913382610939565b61059a57600080fd5b6105a5838383610a06565b505050565b60006105b58361077d565b82106105f6576040517f08c379a00000000000000000000000000000000000000000000000000000000081526004016105ed90611177565b60405180910390fd5b600860008473ffffffffffffffffffffffffffffffffffffffff1673ffffffffffffffffffffffffffffffffffffffff168152602001908152602001600020828154811061064757610646611197565b5b9060005260206000200154905092915050565b600061066461057a565b82106106a5576040517f08c379a000000000000000000000000000000000000000000000000000000000815260040161069c90611238565b60405180910390fd5b600682815481106106b9576106b8611197565b5b90600052602060002001549050919050565b6000806003600084815260200190815260200160002060009054906101000a900473ffffffffffffffffffffffffffffffffffffffff169050600073ffffffffffffffffffffffffffffffffffffffff168173ffffffffffffffffffffffffffffffffffffffff161415610774576040517f08c379a000000000000000000000000000000000000000000000000000000000815260040161076b906112ca565b60405180910390fd5b80915050919050565b60008073ffffffffffffffffffffffffffffffffffffffff168273ffffffffffffffffffffffffffffffffffffffff1614156107ee576040517f08c379a00000000000000000000000000000000000000000000000000000000081526004016107e5906112ca565b60405180910390fd5b600460008373ffffffffffffffffffffffffffffffffffffffff1673ffffffffffffffffffffffffffffffffffffffff168152602001908152602001600020549050919050565b60606002805461084490610f1d565b80601f016020809104026020016040519081016040528092919081815260200182805461087090610f1d565b80156108bd5780601f10610892576101008083540402835291602001916108bd565b820191906000526020600020905b8154815290600101906020018083116108a057829003601f168201915b5050505050905090565b6000806003600084815260200190815260200160002060009054906101000a900473ffffffffffffffffffffffffffffffffffffffff169050600073ffffffffffffffffffffffffffffffffffffffff168173ffffffffffffffffffffffffffffffffffffffff161415915050919050565b6000610944826108c7565b610983576040517f08c379a000000000000000000000000000000000000000000000000000000000815260040161097a90611336565b60405180910390fd5b600061098e836106cb565b90508073ffffffffffffffffffffffffffffffffffffffff168473ffffffffffffffffffffffffffffffffffffffff1614806109fd57508373ffffffffffffffffffffffffffffffffffffffff166109e584610359565b73ffffffffffffffffffffffffffffffffffffffff16145b91505092915050565b600073ffffffffffffffffffffffffffffffffffffffff168273ffffffffffffffffffffffffffffffffffffffff161415610a76576040517f08c379a0000000000000000000000000000000000000000000000000000000008152600401610a6d906113c8565b60405180910390fd5b8273ffffffffffffffffffffffffffffffffffffffff16610a96826106cb565b73ffffffffffffffffffffffffffffffffffffffff1614610aec576040517f08c379a0000000000000000000000000000000000000000000000000000000008152600401610ae39061145a565b60405180910390fd5b816003600083815260200190815260200160002060006101000a81548173ffffffffffffffffffffffffffffffffffffffff021916908373ffffffffffffffffffffffffffffffffffffffff160217905550808273ffffffffffffffffffffffffffffffffffffffff168473ffffffffffffffffffffffffffffffffffffffff167fddf252ad1be2c89b69c2b068fc378daa952ba7f163c4a11628f55a4df523b3ef60405160405180910390a4505050565b600080fd5b60007fffffffff0000000000000000000000000000000000000000000000000000000082169050919050565b610bd881610ba3565b8114610be357600080fd5b50565b600081359050610bf581610bcf565b92915050565b600060208284031215610c1157610c10610b9e565b5b6000610c1f84828501610be6565b91505092915050565b60008115159050919050565b610c3d81610c28565b82525050565b6000602082019050610c586000830184610c34565b92915050565b600081519050919050565b600082825260208201905092915050565b60005b83811015610c98578082015181840152602081019050610c7d565b83811115610ca7576000848401525b50505050565b6000601f19601f8301169050919050565b6000610cc982610c5e565b610cd38185610c69565b9350610ce3818560208601610c7a565b610cec81610cad565b840191505092915050565b60006020820190508181036000830152610d118184610cbe565b905092915050565b6000819050919050565b610d2c81610d19565b8114610d3757600080fd5b50565b600081359050610d4981610d23565b92915050565b600060208284031215610d6557610d64610b9e565b5b6000610d7384828501610d3a565b91505092915050565b600073ffffffffffffffffffffffffffffffffffffffff82169050919050565b6000610da782610d7c565b9050919050565b610db781610d9c565b82525050565b6000602082019050610dd26000830184610dae565b92915050565b610de181610d9c565b8114610dec57600080fd5b50565b600081359050610dfe81610dd8565b92915050565b60008060408385031215610e1b57610e1a610b9e565b5b6000610e2985828601610def565b9250506020610e3a85828601610d3a565b9150509250929050565b610e4d81610d19565b82525050565b6000602082019050610e686000830184610e44565b92915050565b600080600060608486031215610e8757610e86610b9e565b5b6000610e9586828701610def565b9350506020610ea686828701610def565b9250506040610eb786828701610d3a565b9150509250925092565b600060208284031215610ed757610ed6610b9e565b5b6000610ee584828501610def565b91505092915050565b7f4e487b7100000000000000000000000000000000000000000000000000000000600052602260045260246000fd5b60006002820490506001821680610f3557607f821691505b60208210811415610f4957610f48610eee565b5b50919050565b7f455243373231202d20617070726f76656420717565727920666f72206e6f6e6560008201527f78697374656e7420746f6b656e00000000000000000000000000000000000000602082015250565b6000610fab602d83610c69565b9150610fb682610f4f565b604082019050919050565b60006020820190508181036000830152610fda81610f9e565b9050919050565b7f455243373231202d20617070726f76616c20746f2063757272656e74206f776e60008201527f6572000000000000000000000000000000000000000000000000000000000000602082015250565b600061103d602283610c69565b915061104882610fe1565b604082019050919050565b6000602082019050818103600083015261106c81611030565b9050919050565b7f455243373231202d2063757272656e742063616c6c6572206973206e6f74207460008201527f6865206f776e6572206f662074686520746f6b656e0000000000000000000000602082015250565b60006110cf603583610c69565b91506110da82611073565b604082019050919050565b600060208201905081810360008301526110fe816110c2565b9050919050565b7f455243373231456e756d65726174696f6e202d206f776e657220696e6465782060008201527f6961206f7574206f6620626f756e647321000000000000000000000000000000602082015250565b6000611161603183610c69565b915061116c82611105565b604082019050919050565b6000602082019050818103600083015261119081611154565b9050919050565b7f4e487b7100000000000000000000000000000000000000000000000000000000600052603260045260246000fd5b7f455243373231456e756d657261626c65202d20696e646578206973206f75742060008201527f6f6620626f756e64732100000000000000000000000000000000000000000000602082015250565b6000611222602a83610c69565b915061122d826111c6565b604082019050919050565b6000602082019050818103600083015261125181611215565b9050919050565b7f4552433732313a20746865206f776e657220616464726573732063616e6e6f7460008201527f2062652030000000000000000000000000000000000000000000000000000000602082015250565b60006112b4602583610c69565b91506112bf82611258565b604082019050919050565b600060208201905081810360008301526112e3816112a7565b9050919050565b7f455243373231202d20746f6b656e20646f6573206e6f74206578697374000000600082015250565b6000611320601d83610c69565b915061132b826112ea565b602082019050919050565b6000602082019050818103600083015261134f81611313565b9050919050565b7f4572726f72202d20455243373231205472616e7366657220746f20746865207a60008201527f65726f2061646472657373000000000000000000000000000000000000000000602082015250565b60006113b2602b83610c69565b91506113bd82611356565b604082019050919050565b600060208201905081810360008301526113e1816113a5565b9050919050565b7f547279696e6720746f207472616e73666572206120746f6b656e20746865206160008201527f64647265737320646f6573206e6f74206f776e21000000000000000000000000602082015250565b6000611444603483610c69565b915061144f826113e8565b604082019050919050565b6000602082019050818103600083015261147381611437565b905091905056fea2646970667358221220729ef04b25e1b9e6f1a24cca6d96114c0f2023f0b5090baaacd9707069e5cbb964736f6c634300080b0033",
  "immutableReferences": {},
  "source": "// SPDX-License-Identifier: MIT\r\npragma solidity ^0.8.0;\r\n\r\n// ./ - the same directory\r\nimport './ERC721Metadata.sol';\r\nimport './ERC721Enumerable.sol';\r\n\r\ncontract ERC721Connector is ERC721Matadata, ERC721Enumerable {\r\n\r\n    //carry the metadata into over\r\n\r\n    constructor(string memory name, string memory symbol) ERC721Matadata(name, symbol) {\r\n        \r\n    }\r\n\r\n}",
  "sourcePath": "C:\\SYNE\\marketplace\\nft-marketplace\\src\\contracts\\ERC721Connector.sol",
  "compiler": {
    "name": "solc",
    "version": "0.8.11+commit.d7f03943.Emscripten.clang"
  },
  "schemaVersion": "3.4.3",
  "updatedAt": "2021-12-23T10:39:16.244Z",
  "devdoc": {
    "kind": "dev",
    "methods": {
      "balanceOf(address)": {
        "details": "NFTs assigned to the zero address are considered invalid, and this  function throws for queries about the zero address.",
        "params": {
          "_owner": "An address for whom to query the balance"
        },
        "returns": {
          "_0": "The number of NFTs owned by `_owner`, possibly zero"
        }
      },
      "ownerOf(uint256)": {
        "details": "NFTs assigned to zero address are considered invalid, and queries  about them do throw.",
        "params": {
          "_tokenId": "The identifier for an NFT"
        },
        "returns": {
          "_0": "The address of the owner of the NFT"
        }
      },
      "transferFrom(address,address,uint256)": {
        "details": "Throws unless `msg.sender` is the current owner, an authorized  operator, or the approved address for this NFT. Throws if `_from` is  not the current owner. Throws if `_to` is the zero address. Throws if  `_tokenId` is not a valid NFT.",
        "params": {
          "_from": "The current owner of the NFT",
          "_to": "The new owner",
          "_tokenId": "The NFT to transfer"
        }
      }
    },
    "version": 1
  },
  "userdoc": {
    "kind": "user",
    "methods": {
      "balanceOf(address)": {
        "notice": "Count all NFTs assigned to an owner"
      },
      "ownerOf(uint256)": {
        "notice": "Find the owner of an NFT"
      },
      "transferFrom(address,address,uint256)": {
        "notice": "Transfer ownership of an NFT -- THE CALLER IS RESPONSIBLE  TO CONFIRM THAT `_to` IS CAPABLE OF RECEIVING NFTS OR ELSE  THEY MAY BE PERMANENTLY LOST"
      }
    },
    "version": 1
  }
}