{
  "contractName": "ERC721",
  "abi": [
    {
      "inputs": [],
      "stateMutability": "nonpayable",
      "type": "constructor"
    },
    {
      "anonymous": false,
      "inputs": [
        {
          "indexed": true,
          "internalType": "address",
          "name": "_owner",
          "type": "address"
        },
        {
          "indexed": true,
          "internalType": "address",
          "name": "_approved",
          "type": "address"
        },
        {
          "indexed": true,
          "internalType": "uint256",
          "name": "_tokenId",
          "type": "uint256"
        }
      ],
      "name": "Approval",
      "type": "event"
    },
    {
      "anonymous": false,
      "inputs": [
        {
          "indexed": true,
          "internalType": "address",
          "name": "_from",
          "type": "address"
        },
        {
          "indexed": true,
          "internalType": "address",
          "name": "_to",
          "type": "address"
        },
        {
          "indexed": true,
          "internalType": "uint256",
          "name": "_tokenId",
          "type": "uint256"
        }
      ],
      "name": "Transfer",
      "type": "event"
    },
    {
      "inputs": [
        {
          "internalType": "bytes4",
          "name": "interfaceId",
          "type": "bytes4"
        }
      ],
      "name": "supportsInterface",
      "outputs": [
        {
          "internalType": "bool",
          "name": "",
          "type": "bool"
        }
      ],
      "stateMutability": "view",
      "type": "function"
    },
    {
      "inputs": [
        {
          "internalType": "address",
          "name": "_owner",
          "type": "address"
        }
      ],
      "name": "balanceOf",
      "outputs": [
        {
          "internalType": "uint256",
          "name": "",
          "type": "uint256"
        }
      ],
      "stateMutability": "view",
      "type": "function"
    },
    {
      "inputs": [
        {
          "internalType": "uint256",
          "name": "_tokenId",
          "type": "uint256"
        }
      ],
      "name": "ownerOf",
      "outputs": [
        {
          "internalType": "address",
          "name": "",
          "type": "address"
        }
      ],
      "stateMutability": "view",
      "type": "function"
    },
    {
      "inputs": [
        {
          "internalType": "address",
          "name": "_to",
          "type": "address"
        },
        {
          "internalType": "uint256",
          "name": "_tokenId",
          "type": "uint256"
        }
      ],
      "name": "approve",
      "outputs": [],
      "stateMutability": "nonpayable",
      "type": "function"
    },
    {
      "inputs": [
        {
          "internalType": "uint256",
          "name": "_tokenId",
          "type": "uint256"
        }
      ],
      "name": "getApproved",
      "outputs": [
        {
          "internalType": "address",
          "name": "",
          "type": "address"
        }
      ],
      "stateMutability": "view",
      "type": "function"
    },
    {
      "inputs": [
        {
          "internalType": "address",
          "name": "_from",
          "type": "address"
        },
        {
          "internalType": "address",
          "name": "_to",
          "type": "address"
        },
        {
          "internalType": "uint256",
          "name": "_tokenId",
          "type": "uint256"
        }
      ],
      "name": "transferFrom",
      "outputs": [],
      "stateMutability": "nonpayable",
      "type": "function"
    }
  ],
  "bytecode": "0x608060405234801561001057600080fd5b506100407f01ffc9a7a5cef8baa21ed3c5c0d7e23accb804b619e9333b597f47a0d84076e26100b860201b60201c565b6100b37f22c82707ba960a14c7592ffb6b8cfaa073fed0048a84cc7fa41f6b5bd8e7f2e47f3a6eb71757dfc6e784c1459d26270140c2c147d95ca985c80026fc5301c3eca17f8a7e378434598edc36d108689a030cbc9d7d465de4f74c71bae1028eed6a881b18186100b860201b60201c565b61020a565b63ffffffff60e01b817bffffffffffffffffffffffffffffffffffffffffffffffffffffffff19161415610121576040517f08c379a0000000000000000000000000000000000000000000000000000000008152600401610118906101ea565b60405180910390fd5b6001600080837bffffffffffffffffffffffffffffffffffffffffffffffffffffffff19167bffffffffffffffffffffffffffffffffffffffffffffffffffffffff1916815260200190815260200160002060006101000a81548160ff02191690831515021790555050565b600082825260208201905092915050565b7f455243313635202d20696e76616c696420696e74657266616365000000000000600082015250565b60006101d4601a8361018d565b91506101df8261019e565b602082019050919050565b60006020820190508181036000830152610203816101c7565b9050919050565b610eff806102196000396000f3fe608060405234801561001057600080fd5b50600436106100625760003560e01c806301ffc9a714610067578063081812fc14610097578063095ea7b3146100c757806323b872dd146100e35780636352211e146100ff57806370a082311461012f575b600080fd5b610081600480360381019061007c91906108a8565b61015f565b60405161008e91906108f0565b60405180910390f35b6100b160048036038101906100ac9190610941565b6101c6565b6040516100be91906109af565b60405180910390f35b6100e160048036038101906100dc91906109f6565b61024b565b005b6100fd60048036038101906100f89190610a36565b6103e7565b005b61011960048036038101906101149190610941565b61040a565b60405161012691906109af565b60405180910390f35b61014960048036038101906101449190610a89565b6104bc565b6040516101569190610ac5565b60405180910390f35b6000806000837bffffffffffffffffffffffffffffffffffffffffffffffffffffffff19167bffffffffffffffffffffffffffffffffffffffffffffffffffffffff1916815260200190815260200160002060009054906101000a900460ff169050919050565b60006101d182610574565b610210576040517f08c379a000000000000000000000000000000000000000000000000000000000815260040161020790610b63565b60405180910390fd5b6003600083815260200190815260200160002060009054906101000a900473ffffffffffffffffffffffffffffffffffffffff169050919050565b60006102568261040a565b90508273ffffffffffffffffffffffffffffffffffffffff168173ffffffffffffffffffffffffffffffffffffffff1614156102c7576040517f08c379a00000000000000000000000000000000000000000000000000000000081526004016102be90610bf5565b60405180910390fd5b8073ffffffffffffffffffffffffffffffffffffffff163373ffffffffffffffffffffffffffffffffffffffff1614610335576040517f08c379a000000000000000000000000000000000000000000000000000000000815260040161032c90610c87565b60405180910390fd5b826003600084815260200190815260200160002060006101000a81548173ffffffffffffffffffffffffffffffffffffffff021916908373ffffffffffffffffffffffffffffffffffffffff160217905550818373ffffffffffffffffffffffffffffffffffffffff168273ffffffffffffffffffffffffffffffffffffffff167f8c5be1e5ebec7d5bd14f71427d1e84f3dd0314c0f7b2291e5b200ac8c7c3b92560405160405180910390a4505050565b6103f133826105e6565b6103fa57600080fd5b6104058383836106b3565b505050565b6000806001600084815260200190815260200160002060009054906101000a900473ffffffffffffffffffffffffffffffffffffffff169050600073ffffffffffffffffffffffffffffffffffffffff168173ffffffffffffffffffffffffffffffffffffffff1614156104b3576040517f08c379a00000000000000000000000000000000000000000000000000000000081526004016104aa90610d19565b60405180910390fd5b80915050919050565b60008073ffffffffffffffffffffffffffffffffffffffff168273ffffffffffffffffffffffffffffffffffffffff16141561052d576040517f08c379a000000000000000000000000000000000000000000000000000000000815260040161052490610d19565b60405180910390fd5b600260008373ffffffffffffffffffffffffffffffffffffffff1673ffffffffffffffffffffffffffffffffffffffff168152602001908152602001600020549050919050565b6000806001600084815260200190815260200160002060009054906101000a900473ffffffffffffffffffffffffffffffffffffffff169050600073ffffffffffffffffffffffffffffffffffffffff168173ffffffffffffffffffffffffffffffffffffffff161415915050919050565b60006105f182610574565b610630576040517f08c379a000000000000000000000000000000000000000000000000000000000815260040161062790610d85565b60405180910390fd5b600061063b8361040a565b90508073ffffffffffffffffffffffffffffffffffffffff168473ffffffffffffffffffffffffffffffffffffffff1614806106aa57508373ffffffffffffffffffffffffffffffffffffffff16610692846101c6565b73ffffffffffffffffffffffffffffffffffffffff16145b91505092915050565b600073ffffffffffffffffffffffffffffffffffffffff168273ffffffffffffffffffffffffffffffffffffffff161415610723576040517f08c379a000000000000000000000000000000000000000000000000000000000815260040161071a90610e17565b60405180910390fd5b8273ffffffffffffffffffffffffffffffffffffffff166107438261040a565b73ffffffffffffffffffffffffffffffffffffffff1614610799576040517f08c379a000000000000000000000000000000000000000000000000000000000815260040161079090610ea9565b60405180910390fd5b816001600083815260200190815260200160002060006101000a81548173ffffffffffffffffffffffffffffffffffffffff021916908373ffffffffffffffffffffffffffffffffffffffff160217905550808273ffffffffffffffffffffffffffffffffffffffff168473ffffffffffffffffffffffffffffffffffffffff167fddf252ad1be2c89b69c2b068fc378daa952ba7f163c4a11628f55a4df523b3ef60405160405180910390a4505050565b600080fd5b60007fffffffff0000000000000000000000000000000000000000000000000000000082169050919050565b61088581610850565b811461089057600080fd5b50565b6000813590506108a28161087c565b92915050565b6000602082840312156108be576108bd61084b565b5b60006108cc84828501610893565b91505092915050565b60008115159050919050565b6108ea816108d5565b82525050565b600060208201905061090560008301846108e1565b92915050565b6000819050919050565b61091e8161090b565b811461092957600080fd5b50565b60008135905061093b81610915565b92915050565b6000602082840312156109575761095661084b565b5b60006109658482850161092c565b91505092915050565b600073ffffffffffffffffffffffffffffffffffffffff82169050919050565b60006109998261096e565b9050919050565b6109a98161098e565b82525050565b60006020820190506109c460008301846109a0565b92915050565b6109d38161098e565b81146109de57600080fd5b50565b6000813590506109f0816109ca565b92915050565b60008060408385031215610a0d57610a0c61084b565b5b6000610a1b858286016109e1565b9250506020610a2c8582860161092c565b9150509250929050565b600080600060608486031215610a4f57610a4e61084b565b5b6000610a5d868287016109e1565b9350506020610a6e868287016109e1565b9250506040610a7f8682870161092c565b9150509250925092565b600060208284031215610a9f57610a9e61084b565b5b6000610aad848285016109e1565b91505092915050565b610abf8161090b565b82525050565b6000602082019050610ada6000830184610ab6565b92915050565b600082825260208201905092915050565b7f455243373231202d20617070726f76656420717565727920666f72206e6f6e6560008201527f78697374656e7420746f6b656e00000000000000000000000000000000000000602082015250565b6000610b4d602d83610ae0565b9150610b5882610af1565b604082019050919050565b60006020820190508181036000830152610b7c81610b40565b9050919050565b7f455243373231202d20617070726f76616c20746f2063757272656e74206f776e60008201527f6572000000000000000000000000000000000000000000000000000000000000602082015250565b6000610bdf602283610ae0565b9150610bea82610b83565b604082019050919050565b60006020820190508181036000830152610c0e81610bd2565b9050919050565b7f455243373231202d2063757272656e742063616c6c6572206973206e6f74207460008201527f6865206f776e6572206f662074686520746f6b656e0000000000000000000000602082015250565b6000610c71603583610ae0565b9150610c7c82610c15565b604082019050919050565b60006020820190508181036000830152610ca081610c64565b9050919050565b7f4552433732313a20746865206f776e657220616464726573732063616e6e6f7460008201527f2062652030000000000000000000000000000000000000000000000000000000602082015250565b6000610d03602583610ae0565b9150610d0e82610ca7565b604082019050919050565b60006020820190508181036000830152610d3281610cf6565b9050919050565b7f455243373231202d20746f6b656e20646f6573206e6f74206578697374000000600082015250565b6000610d6f601d83610ae0565b9150610d7a82610d39565b602082019050919050565b60006020820190508181036000830152610d9e81610d62565b9050919050565b7f4572726f72202d20455243373231205472616e7366657220746f20746865207a60008201527f65726f2061646472657373000000000000000000000000000000000000000000602082015250565b6000610e01602b83610ae0565b9150610e0c82610da5565b604082019050919050565b60006020820190508181036000830152610e3081610df4565b9050919050565b7f547279696e6720746f207472616e73666572206120746f6b656e20746865206160008201527f64647265737320646f6573206e6f74206f776e21000000000000000000000000602082015250565b6000610e93603483610ae0565b9150610e9e82610e37565b604082019050919050565b60006020820190508181036000830152610ec281610e86565b905091905056fea2646970667358221220d890959f9b853079e38f916ebebd72bc5bf77cfc7b049495b15ac1ca31788b8464736f6c634300080b0033",
  "immutableReferences": {},
  "source": "// SPDX-License-Identifier: MIT\r\npragma solidity ^0.8.0;\r\n\r\nimport \"./ERC165.sol\";\r\nimport \"./interfaces/IERC721.sol\";\r\n\r\n/*\r\n\r\nminting function:\r\n1. nft to point to an address\r\n2. keep track of the token ids\r\n3. keep track of token owner addresses to token ids\r\n4. keep track how many tokens an owner has\r\n5. create an event that emints a transfer log  -\r\n    contract address, where it is being minted to, the id\r\n\r\n*/\r\n\r\ncontract ERC721 is ERC165, IERC721 {\r\n    //mapping from token id to the owner\r\n    mapping(uint256 => address) private _tokenOwner;\r\n\r\n    //mapping from owner to number of owned tokens\r\n    mapping(address => uint256) private _numberOwnedTokens;\r\n\r\n    //mapping from token id to approved addresses\r\n    mapping(uint256 => address) private _tokenApprovals;\r\n\r\n\r\n    constructor() {\r\n        _registerInterface(bytes4(keccak256('balanceOf(bytes4)')^\r\n        keccak256('ownerOf(bytes4)')^keccak256('transferFrom(bytes4)')));\r\n    }\r\n\r\n\r\n    // return the number of NFTs owned by _owner\r\n    function balanceOf(address _owner) public view override returns (uint256) {\r\n        require(_owner != address(0), \"ERC721: the owner address cannot be 0\");\r\n\r\n        return _numberOwnedTokens[_owner];\r\n    }\r\n\r\n    // returns the address of the owner of the NFT\r\n    function ownerOf(uint256 _tokenId) public view override returns (address) {\r\n        address owner = _tokenOwner[_tokenId];\r\n        require(owner != address(0), \"ERC721: the owner address cannot be 0\");\r\n\r\n        return owner;\r\n    }\r\n\r\n    function _exists(uint256 _tokenId) internal view returns (bool) {\r\n        //setting the address of nft owner to check the mapping of the address\r\n        //from tokenOwner to tokenId\r\n        address owner = _tokenOwner[_tokenId];\r\n        return owner != address(0);\r\n    }\r\n\r\n    // virtual need to override function in inheritance\r\n    function _mint(address _to, uint256 _tokenId) internal virtual {\r\n        require(_to != address(0), \"ERC721: the mint address cannot be 0\");\r\n\r\n        //require that the token has not already been minted\r\n        require(!_exists(_tokenId), \"ERC721: token alredy minted\");\r\n\r\n        //who owns which token\r\n        //add a new address with tokenId for minting\r\n        _tokenOwner[_tokenId] = _to;\r\n        _numberOwnedTokens[_to] += 1;\r\n\r\n        emit Transfer(address(0), _to, _tokenId);\r\n    }\r\n\r\n    //require that the person approving is the owne\r\n    //require we cant approve sending tokens of the owner to the owner\r\n    //approving an address to a tokenId\r\n    //update the map of the approval addresses\r\n    function approve(address _to, uint256 _tokenId) public {\r\n        address owner = ownerOf(_tokenId);\r\n        require(owner != _to, \"ERC721 - approval to current owner\");\r\n        require(\r\n            msg.sender == owner,\r\n            \"ERC721 - current caller is not the owner of the token\"\r\n        );\r\n\r\n        _tokenApprovals[_tokenId] = _to;\r\n\r\n        emit Approval(owner, _to, _tokenId);\r\n    }\r\n\r\n    function isApprovedOrOwner(address _spender, uint256 _tokenId)\r\n        internal\r\n        view\r\n        returns (bool)\r\n    {\r\n        require(_exists(_tokenId), \"ERC721 - token does not exist\");\r\n        address owner = ownerOf(_tokenId);\r\n        return (_spender == owner || getApproved(_tokenId) == _spender);\r\n    }\r\n\r\n    //get the approved address for a single NFT\r\n    // returns the approved address for this NFT, or the zero address if there is none\r\n    function getApproved(uint256 _tokenId) public view returns (address) {\r\n        require(\r\n            _exists(_tokenId),\r\n            \"ERC721 - approved query for nonexistent token\"\r\n        );\r\n        return _tokenApprovals[_tokenId];\r\n    }\r\n\r\n    function _transferFrom(\r\n        address _from,\r\n        address _to,\r\n        uint256 _tokenId\r\n    ) internal {\r\n        require(\r\n            _to != address(0),\r\n            \"Error - ERC721 Transfer to the zero address\"\r\n        );\r\n        require(\r\n            ownerOf(_tokenId) == _from,\r\n            \"Trying to transfer a token the address does not own!\"\r\n        );\r\n\r\n        // _numberOwnedTokens[_from].decrement();\r\n        // _numberOwnedTokens[_to].increment();\r\n\r\n        _tokenOwner[_tokenId] = _to;\r\n\r\n        emit Transfer(_from, _to, _tokenId);\r\n    }\r\n\r\n    function transferFrom(\r\n        address _from,\r\n        address _to,\r\n        uint256 _tokenId\r\n    ) override public {\r\n        require(isApprovedOrOwner(msg.sender, _tokenId));\r\n        _transferFrom(_from, _to, _tokenId);\r\n    }\r\n}\r\n",
  "sourcePath": "C:\\SYNE\\marketplace\\nft-marketplace\\src\\contracts\\ERC721.sol",
  "compiler": {
    "name": "solc",
    "version": "0.8.11+commit.d7f03943.Emscripten.clang"
  },
  "schemaVersion": "3.4.3",
  "updatedAt": "2021-12-23T10:39:16.230Z",
  "devdoc": {
    "kind": "dev",
    "methods": {
      "balanceOf(address)": {
        "details": "NFTs assigned to the zero address are considered invalid, and this  function throws for queries about the zero address.",
        "params": {
          "_owner": "An address for whom to query the balance"
        },
        "returns": {
          "_0": "The number of NFTs owned by `_owner`, possibly zero"
        }
      },
      "ownerOf(uint256)": {
        "details": "NFTs assigned to zero address are considered invalid, and queries  about them do throw.",
        "params": {
          "_tokenId": "The identifier for an NFT"
        },
        "returns": {
          "_0": "The address of the owner of the NFT"
        }
      },
      "transferFrom(address,address,uint256)": {
        "details": "Throws unless `msg.sender` is the current owner, an authorized  operator, or the approved address for this NFT. Throws if `_from` is  not the current owner. Throws if `_to` is the zero address. Throws if  `_tokenId` is not a valid NFT.",
        "params": {
          "_from": "The current owner of the NFT",
          "_to": "The new owner",
          "_tokenId": "The NFT to transfer"
        }
      }
    },
    "version": 1
  },
  "userdoc": {
    "kind": "user",
    "methods": {
      "balanceOf(address)": {
        "notice": "Count all NFTs assigned to an owner"
      },
      "ownerOf(uint256)": {
        "notice": "Find the owner of an NFT"
      },
      "transferFrom(address,address,uint256)": {
        "notice": "Transfer ownership of an NFT -- THE CALLER IS RESPONSIBLE  TO CONFIRM THAT `_to` IS CAPABLE OF RECEIVING NFTS OR ELSE  THEY MAY BE PERMANENTLY LOST"
      }
    },
    "version": 1
  }
}