{
  "contractName": "ERC721Enumerable",
  "abi": [
    {
      "inputs": [],
      "stateMutability": "nonpayable",
      "type": "constructor"
    },
    {
      "anonymous": false,
      "inputs": [
        {
          "indexed": true,
          "internalType": "address",
          "name": "_owner",
          "type": "address"
        },
        {
          "indexed": true,
          "internalType": "address",
          "name": "_approved",
          "type": "address"
        },
        {
          "indexed": true,
          "internalType": "uint256",
          "name": "_tokenId",
          "type": "uint256"
        }
      ],
      "name": "Approval",
      "type": "event"
    },
    {
      "anonymous": false,
      "inputs": [
        {
          "indexed": true,
          "internalType": "address",
          "name": "_from",
          "type": "address"
        },
        {
          "indexed": true,
          "internalType": "address",
          "name": "_to",
          "type": "address"
        },
        {
          "indexed": true,
          "internalType": "uint256",
          "name": "_tokenId",
          "type": "uint256"
        }
      ],
      "name": "Transfer",
      "type": "event"
    },
    {
      "inputs": [
        {
          "internalType": "address",
          "name": "_to",
          "type": "address"
        },
        {
          "internalType": "uint256",
          "name": "_tokenId",
          "type": "uint256"
        }
      ],
      "name": "approve",
      "outputs": [],
      "stateMutability": "nonpayable",
      "type": "function"
    },
    {
      "inputs": [
        {
          "internalType": "address",
          "name": "_owner",
          "type": "address"
        }
      ],
      "name": "balanceOf",
      "outputs": [
        {
          "internalType": "uint256",
          "name": "",
          "type": "uint256"
        }
      ],
      "stateMutability": "view",
      "type": "function"
    },
    {
      "inputs": [
        {
          "internalType": "uint256",
          "name": "_tokenId",
          "type": "uint256"
        }
      ],
      "name": "getApproved",
      "outputs": [
        {
          "internalType": "address",
          "name": "",
          "type": "address"
        }
      ],
      "stateMutability": "view",
      "type": "function"
    },
    {
      "inputs": [
        {
          "internalType": "uint256",
          "name": "_tokenId",
          "type": "uint256"
        }
      ],
      "name": "ownerOf",
      "outputs": [
        {
          "internalType": "address",
          "name": "",
          "type": "address"
        }
      ],
      "stateMutability": "view",
      "type": "function"
    },
    {
      "inputs": [
        {
          "internalType": "bytes4",
          "name": "interfaceId",
          "type": "bytes4"
        }
      ],
      "name": "supportsInterface",
      "outputs": [
        {
          "internalType": "bool",
          "name": "",
          "type": "bool"
        }
      ],
      "stateMutability": "view",
      "type": "function"
    },
    {
      "inputs": [
        {
          "internalType": "address",
          "name": "_from",
          "type": "address"
        },
        {
          "internalType": "address",
          "name": "_to",
          "type": "address"
        },
        {
          "internalType": "uint256",
          "name": "_tokenId",
          "type": "uint256"
        }
      ],
      "name": "transferFrom",
      "outputs": [],
      "stateMutability": "nonpayable",
      "type": "function"
    },
    {
      "inputs": [],
      "name": "totalSupply",
      "outputs": [
        {
          "internalType": "uint256",
          "name": "",
          "type": "uint256"
        }
      ],
      "stateMutability": "view",
      "type": "function"
    },
    {
      "inputs": [
        {
          "internalType": "uint256",
          "name": "index",
          "type": "uint256"
        }
      ],
      "name": "tokenByIndex",
      "outputs": [
        {
          "internalType": "uint256",
          "name": "",
          "type": "uint256"
        }
      ],
      "stateMutability": "view",
      "type": "function"
    },
    {
      "inputs": [
        {
          "internalType": "address",
          "name": "owner",
          "type": "address"
        },
        {
          "internalType": "uint256",
          "name": "index",
          "type": "uint256"
        }
      ],
      "name": "tokenOfOwnerByIndex",
      "outputs": [
        {
          "internalType": "uint256",
          "name": "",
          "type": "uint256"
        }
      ],
      "stateMutability": "view",
      "type": "function"
    }
  ],
  "bytecode": "0x60806040523480156200001157600080fd5b50620000437f01ffc9a7a5cef8baa21ed3c5c0d7e23accb804b619e9333b597f47a0d84076e26200013360201b60201c565b620000b87f22c82707ba960a14c7592ffb6b8cfaa073fed0048a84cc7fa41f6b5bd8e7f2e47f3a6eb71757dfc6e784c1459d26270140c2c147d95ca985c80026fc5301c3eca17f8a7e378434598edc36d108689a030cbc9d7d465de4f74c71bae1028eed6a881b18186200013360201b60201c565b6200012d7f8230223f691b981717299fae9549350a0d894555723531f02108b1f522c1a7977f6da5e1284143cdd2d15038a59bde3be031250f00291d64494c12d967b3a4e0c37fc53637662700e6c65104059db8bba34439e0c32483ab7c34e3ccae52c739549518186200013360201b60201c565b6200028e565b63ffffffff60e01b817bffffffffffffffffffffffffffffffffffffffffffffffffffffffff191614156200019f576040517f08c379a000000000000000000000000000000000000000000000000000000000815260040162000196906200026c565b60405180910390fd5b6001600080837bffffffffffffffffffffffffffffffffffffffffffffffffffffffff19167bffffffffffffffffffffffffffffffffffffffffffffffffffffffff1916815260200190815260200160002060006101000a81548160ff02191690831515021790555050565b600082825260208201905092915050565b7f455243313635202d20696e76616c696420696e74657266616365000000000000600082015250565b600062000254601a836200020b565b915062000261826200021c565b602082019050919050565b60006020820190508181036000830152620002878162000245565b9050919050565b61122f806200029e6000396000f3fe608060405234801561001057600080fd5b50600436106100935760003560e01c806323b872dd1161006657806323b872dd146101325780632f745c591461014e5780634f6ccce71461017e5780636352211e146101ae57806370a08231146101de57610093565b806301ffc9a714610098578063081812fc146100c8578063095ea7b3146100f857806318160ddd14610114575b600080fd5b6100b260048036038101906100ad9190610a85565b61020e565b6040516100bf9190610acd565b60405180910390f35b6100e260048036038101906100dd9190610b1e565b610275565b6040516100ef9190610b8c565b60405180910390f35b610112600480360381019061010d9190610bd3565b6102fa565b005b61011c610496565b6040516101299190610c22565b60405180910390f35b61014c60048036038101906101479190610c3d565b6104a3565b005b61016860048036038101906101639190610bd3565b6104c6565b6040516101759190610c22565b60405180910390f35b61019860048036038101906101939190610b1e565b610576565b6040516101a59190610c22565b60405180910390f35b6101c860048036038101906101c39190610b1e565b6105e7565b6040516101d59190610b8c565b60405180910390f35b6101f860048036038101906101f39190610c90565b610699565b6040516102059190610c22565b60405180910390f35b6000806000837bffffffffffffffffffffffffffffffffffffffffffffffffffffffff19167bffffffffffffffffffffffffffffffffffffffffffffffffffffffff1916815260200190815260200160002060009054906101000a900460ff169050919050565b600061028082610751565b6102bf576040517f08c379a00000000000000000000000000000000000000000000000000000000081526004016102b690610d40565b60405180910390fd5b6003600083815260200190815260200160002060009054906101000a900473ffffffffffffffffffffffffffffffffffffffff169050919050565b6000610305826105e7565b90508273ffffffffffffffffffffffffffffffffffffffff168173ffffffffffffffffffffffffffffffffffffffff161415610376576040517f08c379a000000000000000000000000000000000000000000000000000000000815260040161036d90610dd2565b60405180910390fd5b8073ffffffffffffffffffffffffffffffffffffffff163373ffffffffffffffffffffffffffffffffffffffff16146103e4576040517f08c379a00000000000000000000000000000000000000000000000000000000081526004016103db90610e64565b60405180910390fd5b826003600084815260200190815260200160002060006101000a81548173ffffffffffffffffffffffffffffffffffffffff021916908373ffffffffffffffffffffffffffffffffffffffff160217905550818373ffffffffffffffffffffffffffffffffffffffff168273ffffffffffffffffffffffffffffffffffffffff167f8c5be1e5ebec7d5bd14f71427d1e84f3dd0314c0f7b2291e5b200ac8c7c3b92560405160405180910390a4505050565b6000600480549050905090565b6104ad33826107c3565b6104b657600080fd5b6104c1838383610890565b505050565b60006104d183610699565b8210610512576040517f08c379a000000000000000000000000000000000000000000000000000000000815260040161050990610ef6565b60405180910390fd5b600660008473ffffffffffffffffffffffffffffffffffffffff1673ffffffffffffffffffffffffffffffffffffffff168152602001908152602001600020828154811061056357610562610f16565b5b9060005260206000200154905092915050565b6000610580610496565b82106105c1576040517f08c379a00000000000000000000000000000000000000000000000000000000081526004016105b890610fb7565b60405180910390fd5b600482815481106105d5576105d4610f16565b5b90600052602060002001549050919050565b6000806001600084815260200190815260200160002060009054906101000a900473ffffffffffffffffffffffffffffffffffffffff169050600073ffffffffffffffffffffffffffffffffffffffff168173ffffffffffffffffffffffffffffffffffffffff161415610690576040517f08c379a000000000000000000000000000000000000000000000000000000000815260040161068790611049565b60405180910390fd5b80915050919050565b60008073ffffffffffffffffffffffffffffffffffffffff168273ffffffffffffffffffffffffffffffffffffffff16141561070a576040517f08c379a000000000000000000000000000000000000000000000000000000000815260040161070190611049565b60405180910390fd5b600260008373ffffffffffffffffffffffffffffffffffffffff1673ffffffffffffffffffffffffffffffffffffffff168152602001908152602001600020549050919050565b6000806001600084815260200190815260200160002060009054906101000a900473ffffffffffffffffffffffffffffffffffffffff169050600073ffffffffffffffffffffffffffffffffffffffff168173ffffffffffffffffffffffffffffffffffffffff161415915050919050565b60006107ce82610751565b61080d576040517f08c379a0000000000000000000000000000000000000000000000000000000008152600401610804906110b5565b60405180910390fd5b6000610818836105e7565b90508073ffffffffffffffffffffffffffffffffffffffff168473ffffffffffffffffffffffffffffffffffffffff16148061088757508373ffffffffffffffffffffffffffffffffffffffff1661086f84610275565b73ffffffffffffffffffffffffffffffffffffffff16145b91505092915050565b600073ffffffffffffffffffffffffffffffffffffffff168273ffffffffffffffffffffffffffffffffffffffff161415610900576040517f08c379a00000000000000000000000000000000000000000000000000000000081526004016108f790611147565b60405180910390fd5b8273ffffffffffffffffffffffffffffffffffffffff16610920826105e7565b73ffffffffffffffffffffffffffffffffffffffff1614610976576040517f08c379a000000000000000000000000000000000000000000000000000000000815260040161096d906111d9565b60405180910390fd5b816001600083815260200190815260200160002060006101000a81548173ffffffffffffffffffffffffffffffffffffffff021916908373ffffffffffffffffffffffffffffffffffffffff160217905550808273ffffffffffffffffffffffffffffffffffffffff168473ffffffffffffffffffffffffffffffffffffffff167fddf252ad1be2c89b69c2b068fc378daa952ba7f163c4a11628f55a4df523b3ef60405160405180910390a4505050565b600080fd5b60007fffffffff0000000000000000000000000000000000000000000000000000000082169050919050565b610a6281610a2d565b8114610a6d57600080fd5b50565b600081359050610a7f81610a59565b92915050565b600060208284031215610a9b57610a9a610a28565b5b6000610aa984828501610a70565b91505092915050565b60008115159050919050565b610ac781610ab2565b82525050565b6000602082019050610ae26000830184610abe565b92915050565b6000819050919050565b610afb81610ae8565b8114610b0657600080fd5b50565b600081359050610b1881610af2565b92915050565b600060208284031215610b3457610b33610a28565b5b6000610b4284828501610b09565b91505092915050565b600073ffffffffffffffffffffffffffffffffffffffff82169050919050565b6000610b7682610b4b565b9050919050565b610b8681610b6b565b82525050565b6000602082019050610ba16000830184610b7d565b92915050565b610bb081610b6b565b8114610bbb57600080fd5b50565b600081359050610bcd81610ba7565b92915050565b60008060408385031215610bea57610be9610a28565b5b6000610bf885828601610bbe565b9250506020610c0985828601610b09565b9150509250929050565b610c1c81610ae8565b82525050565b6000602082019050610c376000830184610c13565b92915050565b600080600060608486031215610c5657610c55610a28565b5b6000610c6486828701610bbe565b9350506020610c7586828701610bbe565b9250506040610c8686828701610b09565b9150509250925092565b600060208284031215610ca657610ca5610a28565b5b6000610cb484828501610bbe565b91505092915050565b600082825260208201905092915050565b7f455243373231202d20617070726f76656420717565727920666f72206e6f6e6560008201527f78697374656e7420746f6b656e00000000000000000000000000000000000000602082015250565b6000610d2a602d83610cbd565b9150610d3582610cce565b604082019050919050565b60006020820190508181036000830152610d5981610d1d565b9050919050565b7f455243373231202d20617070726f76616c20746f2063757272656e74206f776e60008201527f6572000000000000000000000000000000000000000000000000000000000000602082015250565b6000610dbc602283610cbd565b9150610dc782610d60565b604082019050919050565b60006020820190508181036000830152610deb81610daf565b9050919050565b7f455243373231202d2063757272656e742063616c6c6572206973206e6f74207460008201527f6865206f776e6572206f662074686520746f6b656e0000000000000000000000602082015250565b6000610e4e603583610cbd565b9150610e5982610df2565b604082019050919050565b60006020820190508181036000830152610e7d81610e41565b9050919050565b7f455243373231456e756d65726174696f6e202d206f776e657220696e6465782060008201527f6961206f7574206f6620626f756e647321000000000000000000000000000000602082015250565b6000610ee0603183610cbd565b9150610eeb82610e84565b604082019050919050565b60006020820190508181036000830152610f0f81610ed3565b9050919050565b7f4e487b7100000000000000000000000000000000000000000000000000000000600052603260045260246000fd5b7f455243373231456e756d657261626c65202d20696e646578206973206f75742060008201527f6f6620626f756e64732100000000000000000000000000000000000000000000602082015250565b6000610fa1602a83610cbd565b9150610fac82610f45565b604082019050919050565b60006020820190508181036000830152610fd081610f94565b9050919050565b7f4552433732313a20746865206f776e657220616464726573732063616e6e6f7460008201527f2062652030000000000000000000000000000000000000000000000000000000602082015250565b6000611033602583610cbd565b915061103e82610fd7565b604082019050919050565b6000602082019050818103600083015261106281611026565b9050919050565b7f455243373231202d20746f6b656e20646f6573206e6f74206578697374000000600082015250565b600061109f601d83610cbd565b91506110aa82611069565b602082019050919050565b600060208201905081810360008301526110ce81611092565b9050919050565b7f4572726f72202d20455243373231205472616e7366657220746f20746865207a60008201527f65726f2061646472657373000000000000000000000000000000000000000000602082015250565b6000611131602b83610cbd565b915061113c826110d5565b604082019050919050565b6000602082019050818103600083015261116081611124565b9050919050565b7f547279696e6720746f207472616e73666572206120746f6b656e20746865206160008201527f64647265737320646f6573206e6f74206f776e21000000000000000000000000602082015250565b60006111c3603483610cbd565b91506111ce82611167565b604082019050919050565b600060208201905081810360008301526111f2816111b6565b905091905056fea264697066735822122013e52cffdf4c8800d360bfb3eca132f258bb99979de8fbbf2aaa28e2f1f9d0d264736f6c634300080b0033",
  "immutableReferences": {},
  "source": "// SPDX-License-Identifier: MIT\r\npragma solidity ^0.8.0;\r\n\r\nimport './ERC721.sol';\r\nimport \"./interfaces/IERC721Enumerable.sol\";\r\n\r\ncontract ERC721Enumerable is ERC721, IERC721Enumerable {\r\n\r\n    uint256[] private _allTokens;\r\n\r\n    //mapping from tokenId to position in _allTokens array\r\n    mapping(uint256 => uint256) private _allTokensIndex;\r\n\r\n    //mapping of owner to list of all owner token ids\r\n    mapping(address => uint256[]) private _ownedTokensIds;\r\n\r\n    //mapping from token id index of the owner tokens list\r\n    mapping(uint256 => uint256) private _ownedTokensIndex;\r\n\r\n    constructor() {\r\n        _registerInterface(bytes4(keccak256('totalSupply(bytes4)')^\r\n        keccak256('tokenByIndex(bytes4)')^keccak256('tokenOfOwnerByIndex(bytes4)')));\r\n    }\r\n\r\n    // return a count of valid NFTs tracked by this contract, where each one of\r\n    // them has an assigned and queryable owner not equal to the zero address\r\n    // function totalSupply() external view returns (uint256) {\r\n    //     return _allTokens.length;\r\n    // }\r\n\r\n    //return the token identifier for the `_index`th NFT and throws if `_index` >= `totalSupply()`\r\n    //function tokenByIndex(uint256 _index) external view returns (uint256);\r\n\r\n    //return the token identifier for the `_index`th NFT assigned to `_owner` and throws if `_index` >= `balanceOf(_owner)` or if\r\n    // `_owner` is the zero address, representing invalid NFTs.\r\n    //function tokenOfOwnerByIndex(address _owner, uint256 _index) external view returns (uint256);\r\n\r\n    //add tokens to the _allTokens array and set the position\r\n    // of  the tokens indexes\r\n    function _addTokensToEnumeration(uint256 tokenId) private {\r\n        _allTokensIndex[tokenId] = _allTokens.length;\r\n        _allTokens.push(tokenId);\r\n    }\r\n\r\n    function _addTokensToOwnerEnumeration(address owner, uint256 tokenId) private {\r\n        //add address and tokenId to the _ownedTokensIds\r\n        //_ownedTokensIndex tokenId set to address of _ownedTokensIds\r\n        _ownedTokensIndex[tokenId] = _ownedTokensIds[owner].length;\r\n        _ownedTokensIds[owner].push(tokenId);\r\n\r\n    }\r\n\r\n    function totalSupply() public override view returns(uint256) {\r\n        return _allTokens.length; \r\n    }\r\n\r\n    function tokenByIndex(uint256 index) public override view returns(uint256) {\r\n        require(index < totalSupply(), \"ERC721Enumerable - index is out of bounds!\");\r\n        return _allTokens[index];\r\n    }\r\n\r\n    function tokenOfOwnerByIndex(address owner, uint256 index) public override view returns(uint256) {\r\n        require(index < balanceOf(owner), \"ERC721Enumeration - owner index ia out of bounds!\");\r\n        return _ownedTokensIds[owner][index];\r\n    }\r\n \r\n    function _mint(address to, uint256 tokenId) internal override(ERC721) {\r\n        super._mint(to, tokenId);\r\n        \r\n        //add tokens yo the owner\r\n        //all tokens to totalSupply = to allTokens\r\n        _addTokensToEnumeration(tokenId);\r\n        _addTokensToOwnerEnumeration(to, tokenId);\r\n        \r\n    }\r\n\r\n}",
  "sourcePath": "C:\\SYNE\\marketplace\\nft-marketplace\\src\\contracts\\ERC721Enumerable.sol",
  "compiler": {
    "name": "solc",
    "version": "0.8.11+commit.d7f03943.Emscripten.clang"
  },
  "schemaVersion": "3.4.3",
  "updatedAt": "2021-12-23T10:39:16.256Z",
  "devdoc": {
    "kind": "dev",
    "methods": {
      "balanceOf(address)": {
        "details": "NFTs assigned to the zero address are considered invalid, and this  function throws for queries about the zero address.",
        "params": {
          "_owner": "An address for whom to query the balance"
        },
        "returns": {
          "_0": "The number of NFTs owned by `_owner`, possibly zero"
        }
      },
      "ownerOf(uint256)": {
        "details": "NFTs assigned to zero address are considered invalid, and queries  about them do throw.",
        "params": {
          "_tokenId": "The identifier for an NFT"
        },
        "returns": {
          "_0": "The address of the owner of the NFT"
        }
      },
      "transferFrom(address,address,uint256)": {
        "details": "Throws unless `msg.sender` is the current owner, an authorized  operator, or the approved address for this NFT. Throws if `_from` is  not the current owner. Throws if `_to` is the zero address. Throws if  `_tokenId` is not a valid NFT.",
        "params": {
          "_from": "The current owner of the NFT",
          "_to": "The new owner",
          "_tokenId": "The NFT to transfer"
        }
      }
    },
    "version": 1
  },
  "userdoc": {
    "kind": "user",
    "methods": {
      "balanceOf(address)": {
        "notice": "Count all NFTs assigned to an owner"
      },
      "ownerOf(uint256)": {
        "notice": "Find the owner of an NFT"
      },
      "transferFrom(address,address,uint256)": {
        "notice": "Transfer ownership of an NFT -- THE CALLER IS RESPONSIBLE  TO CONFIRM THAT `_to` IS CAPABLE OF RECEIVING NFTS OR ELSE  THEY MAY BE PERMANENTLY LOST"
      }
    },
    "version": 1
  }
}