{
  "contractName": "ERC721Enumerable",
  "abi": [
    {
      "anonymous": false,
      "inputs": [
        {
          "indexed": true,
          "internalType": "address",
          "name": "from",
          "type": "address"
        },
        {
          "indexed": true,
          "internalType": "address",
          "name": "to",
          "type": "address"
        },
        {
          "indexed": true,
          "internalType": "uint256",
          "name": "tokenId",
          "type": "uint256"
        }
      ],
      "name": "Transfer",
      "type": "event"
    },
    {
      "inputs": [
        {
          "internalType": "address",
          "name": "_owner",
          "type": "address"
        }
      ],
      "name": "balanceOf",
      "outputs": [
        {
          "internalType": "uint256",
          "name": "",
          "type": "uint256"
        }
      ],
      "stateMutability": "view",
      "type": "function"
    },
    {
      "inputs": [
        {
          "internalType": "uint256",
          "name": "_tokenId",
          "type": "uint256"
        }
      ],
      "name": "ownerOf",
      "outputs": [
        {
          "internalType": "address",
          "name": "",
          "type": "address"
        }
      ],
      "stateMutability": "view",
      "type": "function"
    },
    {
      "inputs": [],
      "name": "totalSupply",
      "outputs": [
        {
          "internalType": "uint256",
          "name": "",
          "type": "uint256"
        }
      ],
      "stateMutability": "view",
      "type": "function"
    }
  ],
  "bytecode": "0x608060405234801561001057600080fd5b5061045a806100206000396000f3fe608060405234801561001057600080fd5b50600436106100415760003560e01c806318160ddd146100465780636352211e1461006457806370a0823114610094575b600080fd5b61004e6100c4565b60405161005b9190610253565b60405180910390f35b61007e6004803603810190610079919061029f565b6100d1565b60405161008b919061030d565b60405180910390f35b6100ae60048036038101906100a99190610354565b610182565b6040516100bb9190610253565b60405180910390f35b6000600280549050905090565b60008060008084815260200190815260200160002060009054906101000a900473ffffffffffffffffffffffffffffffffffffffff169050600073ffffffffffffffffffffffffffffffffffffffff168173ffffffffffffffffffffffffffffffffffffffff161415610179576040517f08c379a000000000000000000000000000000000000000000000000000000000815260040161017090610404565b60405180910390fd5b80915050919050565b60008073ffffffffffffffffffffffffffffffffffffffff168273ffffffffffffffffffffffffffffffffffffffff1614156101f3576040517f08c379a00000000000000000000000000000000000000000000000000000000081526004016101ea90610404565b60405180910390fd5b600160008373ffffffffffffffffffffffffffffffffffffffff1673ffffffffffffffffffffffffffffffffffffffff168152602001908152602001600020549050919050565b6000819050919050565b61024d8161023a565b82525050565b60006020820190506102686000830184610244565b92915050565b600080fd5b61027c8161023a565b811461028757600080fd5b50565b60008135905061029981610273565b92915050565b6000602082840312156102b5576102b461026e565b5b60006102c38482850161028a565b91505092915050565b600073ffffffffffffffffffffffffffffffffffffffff82169050919050565b60006102f7826102cc565b9050919050565b610307816102ec565b82525050565b600060208201905061032260008301846102fe565b92915050565b610331816102ec565b811461033c57600080fd5b50565b60008135905061034e81610328565b92915050565b60006020828403121561036a5761036961026e565b5b60006103788482850161033f565b91505092915050565b600082825260208201905092915050565b7f4552433732313a20746865206f776e657220616464726573732063616e6e6f7460008201527f2062652030000000000000000000000000000000000000000000000000000000602082015250565b60006103ee602583610381565b91506103f982610392565b604082019050919050565b6000602082019050818103600083015261041d816103e1565b905091905056fea26469706673582212200311db79a5a42cf52b8ddde03ad505be1dbbfe19b182682854703f81f0887ddc64736f6c634300080a0033",
  "immutableReferences": {},
  "source": "// SPDX-License-Identifier: MIT\r\npragma solidity ^0.8.0;\r\n\r\nimport './ERC721.sol';\r\n\r\ncontract ERC721Enumerable is ERC721 {\r\n\r\n    uint256[] private _allTokens;\r\n\r\n    //mapping from tokenId to position in _allTokens array\r\n    mapping(uint256 => uint256) private _allTokensIndex;\r\n\r\n    //mapping of owner to list of all owner token ids\r\n    mapping(address => uint256[]) private _ownedTokensIds;\r\n\r\n    //mapping from token id index of the owner tokens list\r\n    mapping(uint256 => uint256) private _ownedTokensIndex;\r\n\r\n    // return a count of valid NFTs tracked by this contract, where each one of\r\n    // them has an assigned and queryable owner not equal to the zero address\r\n    // function totalSupply() external view returns (uint256) {\r\n    //     return _allTokens.length;\r\n    // }\r\n\r\n    //return the token identifier for the `_index`th NFT and throws if `_index` >= `totalSupply()`\r\n    //function tokenByIndex(uint256 _index) external view returns (uint256);\r\n\r\n    //return the token identifier for the `_index`th NFT assigned to `_owner` and throws if `_index` >= `balanceOf(_owner)` or if\r\n    // `_owner` is the zero address, representing invalid NFTs.\r\n    //function tokenOfOwnerByIndex(address _owner, uint256 _index) external view returns (uint256);\r\n\r\n    function _addTokensToTotalSupply(uint256 tokenId) private {\r\n        \r\n        _allTokens.push(tokenId);\r\n    }\r\n\r\n    function totalSupply() public view returns(uint256) {\r\n        return _allTokens.length; \r\n    }\r\n\r\n    function _mint(address to, uint256 tokenId) internal override(ERC721) {\r\n        super._mint(to, tokenId);\r\n        \r\n        //add tokens yo the owner\r\n        _addTokensToTotalSupply(tokenId);\r\n\r\n        //all tokens to totalSupply = to allTokens\r\n        \r\n\r\n    }\r\n\r\n}",
  "sourcePath": "C:\\SYNE\\marketplace\\nft-marketplace\\src\\contracts\\ERC721Enumerable.sol",
  "compiler": {
    "name": "solc",
    "version": "0.8.10+commit.fc410830.Emscripten.clang"
  },
  "schemaVersion": "3.4.3",
  "updatedAt": "2021-12-15T17:44:52.513Z",
  "devdoc": {
    "kind": "dev",
    "methods": {},
    "version": 1
  },
  "userdoc": {
    "kind": "user",
    "methods": {},
    "version": 1
  }
}