{
  "contractName": "KryptoBird",
  "abi": [
    {
      "inputs": [],
      "stateMutability": "nonpayable",
      "type": "constructor"
    },
    {
      "anonymous": false,
      "inputs": [
        {
          "indexed": true,
          "internalType": "address",
          "name": "_owner",
          "type": "address"
        },
        {
          "indexed": true,
          "internalType": "address",
          "name": "_approved",
          "type": "address"
        },
        {
          "indexed": true,
          "internalType": "uint256",
          "name": "_tokenId",
          "type": "uint256"
        }
      ],
      "name": "Approval",
      "type": "event"
    },
    {
      "anonymous": false,
      "inputs": [
        {
          "indexed": true,
          "internalType": "address",
          "name": "_from",
          "type": "address"
        },
        {
          "indexed": true,
          "internalType": "address",
          "name": "_to",
          "type": "address"
        },
        {
          "indexed": true,
          "internalType": "uint256",
          "name": "_tokenId",
          "type": "uint256"
        }
      ],
      "name": "Transfer",
      "type": "event"
    },
    {
      "inputs": [
        {
          "internalType": "address",
          "name": "_to",
          "type": "address"
        },
        {
          "internalType": "uint256",
          "name": "_tokenId",
          "type": "uint256"
        }
      ],
      "name": "approve",
      "outputs": [],
      "stateMutability": "nonpayable",
      "type": "function"
    },
    {
      "inputs": [
        {
          "internalType": "address",
          "name": "_owner",
          "type": "address"
        }
      ],
      "name": "balanceOf",
      "outputs": [
        {
          "internalType": "uint256",
          "name": "",
          "type": "uint256"
        }
      ],
      "stateMutability": "view",
      "type": "function",
      "constant": true
    },
    {
      "inputs": [
        {
          "internalType": "uint256",
          "name": "_tokenId",
          "type": "uint256"
        }
      ],
      "name": "getApproved",
      "outputs": [
        {
          "internalType": "address",
          "name": "",
          "type": "address"
        }
      ],
      "stateMutability": "view",
      "type": "function",
      "constant": true
    },
    {
      "inputs": [
        {
          "internalType": "uint256",
          "name": "",
          "type": "uint256"
        }
      ],
      "name": "kryptoPaintz",
      "outputs": [
        {
          "internalType": "string",
          "name": "",
          "type": "string"
        }
      ],
      "stateMutability": "view",
      "type": "function",
      "constant": true
    },
    {
      "inputs": [],
      "name": "name",
      "outputs": [
        {
          "internalType": "string",
          "name": "",
          "type": "string"
        }
      ],
      "stateMutability": "view",
      "type": "function",
      "constant": true
    },
    {
      "inputs": [
        {
          "internalType": "uint256",
          "name": "_tokenId",
          "type": "uint256"
        }
      ],
      "name": "ownerOf",
      "outputs": [
        {
          "internalType": "address",
          "name": "",
          "type": "address"
        }
      ],
      "stateMutability": "view",
      "type": "function",
      "constant": true
    },
    {
      "inputs": [
        {
          "internalType": "bytes4",
          "name": "interfaceId",
          "type": "bytes4"
        }
      ],
      "name": "supportsInterface",
      "outputs": [
        {
          "internalType": "bool",
          "name": "",
          "type": "bool"
        }
      ],
      "stateMutability": "view",
      "type": "function",
      "constant": true
    },
    {
      "inputs": [],
      "name": "symbol",
      "outputs": [
        {
          "internalType": "string",
          "name": "",
          "type": "string"
        }
      ],
      "stateMutability": "view",
      "type": "function",
      "constant": true
    },
    {
      "inputs": [
        {
          "internalType": "uint256",
          "name": "index",
          "type": "uint256"
        }
      ],
      "name": "tokenByIndex",
      "outputs": [
        {
          "internalType": "uint256",
          "name": "",
          "type": "uint256"
        }
      ],
      "stateMutability": "view",
      "type": "function",
      "constant": true
    },
    {
      "inputs": [
        {
          "internalType": "address",
          "name": "owner",
          "type": "address"
        },
        {
          "internalType": "uint256",
          "name": "index",
          "type": "uint256"
        }
      ],
      "name": "tokenOfOwnerByIndex",
      "outputs": [
        {
          "internalType": "uint256",
          "name": "",
          "type": "uint256"
        }
      ],
      "stateMutability": "view",
      "type": "function",
      "constant": true
    },
    {
      "inputs": [],
      "name": "totalSupply",
      "outputs": [
        {
          "internalType": "uint256",
          "name": "",
          "type": "uint256"
        }
      ],
      "stateMutability": "view",
      "type": "function",
      "constant": true
    },
    {
      "inputs": [
        {
          "internalType": "address",
          "name": "_from",
          "type": "address"
        },
        {
          "internalType": "address",
          "name": "_to",
          "type": "address"
        },
        {
          "internalType": "uint256",
          "name": "_tokenId",
          "type": "uint256"
        }
      ],
      "name": "transferFrom",
      "outputs": [],
      "stateMutability": "nonpayable",
      "type": "function"
    },
    {
      "inputs": [
        {
          "internalType": "string",
          "name": "_kryptoPaint",
          "type": "string"
        }
      ],
      "name": "mint",
      "outputs": [],
      "stateMutability": "nonpayable",
      "type": "function"
    }
  ],
  "bytecode": "0x60806040523480156200001157600080fd5b506040518060400160405280600b81526020017f4b727970746f5061696e740000000000000000000000000000000000000000008152506040518060400160405280600781526020017f4b5041494e545a000000000000000000000000000000000000000000000000008152508181620000b17f01ffc9a7a5cef8baa21ed3c5c0d7e23accb804b619e9333b597f47a0d84076e26200022a60201b60201c565b620001047f13b182f4c0e5b2efbac0efe6cf6d756c8b89f4b79c5707a043ed9ea740574ee97f7feaf19471f34a12a7eaf32d5f3090aa2260ea8624dc8a138e74e0bf0f623076186200022a60201b60201c565b81600190805190602001906200011c92919062000302565b5080600290805190602001906200013592919062000302565b505050620001ad7f22c82707ba960a14c7592ffb6b8cfaa073fed0048a84cc7fa41f6b5bd8e7f2e47f3a6eb71757dfc6e784c1459d26270140c2c147d95ca985c80026fc5301c3eca17f8a7e378434598edc36d108689a030cbc9d7d465de4f74c71bae1028eed6a881b18186200022a60201b60201c565b620002227f8230223f691b981717299fae9549350a0d894555723531f02108b1f522c1a7977f6da5e1284143cdd2d15038a59bde3be031250f00291d64494c12d967b3a4e0c37fc53637662700e6c65104059db8bba34439e0c32483ab7c34e3ccae52c739549518186200022a60201b60201c565b50506200049a565b63ffffffff60e01b817bffffffffffffffffffffffffffffffffffffffffffffffffffffffff1916141562000296576040517f08c379a00000000000000000000000000000000000000000000000000000000081526004016200028d9062000413565b60405180910390fd5b6001600080837bffffffffffffffffffffffffffffffffffffffffffffffffffffffff19167bffffffffffffffffffffffffffffffffffffffffffffffffffffffff1916815260200190815260200160002060006101000a81548160ff02191690831515021790555050565b828054620003109062000464565b90600052602060002090601f01602090048101928262000334576000855562000380565b82601f106200034f57805160ff191683800117855562000380565b8280016001018555821562000380579182015b828111156200037f57825182559160200191906001019062000362565b5b5090506200038f919062000393565b5090565b5b80821115620003ae57600081600090555060010162000394565b5090565b600082825260208201905092915050565b7f455243313635202d20696e76616c696420696e74657266616365000000000000600082015250565b6000620003fb601a83620003b2565b91506200040882620003c3565b602082019050919050565b600060208201905081810360008301526200042e81620003ec565b9050919050565b7f4e487b7100000000000000000000000000000000000000000000000000000000600052602260045260246000fd5b600060028204905060018216806200047d57607f821691505b6020821081141562000494576200049362000435565b5b50919050565b611e8d80620004aa6000396000f3fe608060405234801561001057600080fd5b50600436106100cf5760003560e01c80632f745c591161008c57806370a082311161006657806370a082311461023857806395d89b411461026857806396c5bebd14610286578063d85d3d27146102b6576100cf565b80632f745c59146101a85780634f6ccce7146101d85780636352211e14610208576100cf565b806301ffc9a7146100d457806306fdde0314610104578063081812fc14610122578063095ea7b31461015257806318160ddd1461016e57806323b872dd1461018c575b600080fd5b6100ee60048036038101906100e991906111be565b6102d2565b6040516100fb9190611206565b60405180910390f35b61010c610339565b60405161011991906112ba565b60405180910390f35b61013c60048036038101906101379190611312565b6103cb565b6040516101499190611380565b60405180910390f35b61016c600480360381019061016791906113c7565b610450565b005b6101766105ec565b6040516101839190611416565b60405180910390f35b6101a660048036038101906101a19190611431565b6105f9565b005b6101c260048036038101906101bd91906113c7565b61061c565b6040516101cf9190611416565b60405180910390f35b6101f260048036038101906101ed9190611312565b6106cc565b6040516101ff9190611416565b60405180910390f35b610222600480360381019061021d9190611312565b61073d565b60405161022f9190611380565b60405180910390f35b610252600480360381019061024d9190611484565b6107ef565b60405161025f9190611416565b60405180910390f35b6102706108a7565b60405161027d91906112ba565b60405180910390f35b6102a0600480360381019061029b9190611312565b610939565b6040516102ad91906112ba565b60405180910390f35b6102d060048036038101906102cb91906115e6565b6109e5565b005b6000806000837bffffffffffffffffffffffffffffffffffffffffffffffffffffffff19167bffffffffffffffffffffffffffffffffffffffffffffffffffffffff1916815260200190815260200160002060009054906101000a900460ff169050919050565b6060600180546103489061165e565b80601f01602080910402602001604051908101604052809291908181526020018280546103749061165e565b80156103c15780601f10610396576101008083540402835291602001916103c1565b820191906000526020600020905b8154815290600101906020018083116103a457829003601f168201915b5050505050905090565b60006103d682610ae8565b610415576040517f08c379a000000000000000000000000000000000000000000000000000000000815260040161040c90611702565b60405180910390fd5b6005600083815260200190815260200160002060009054906101000a900473ffffffffffffffffffffffffffffffffffffffff169050919050565b600061045b8261073d565b90508273ffffffffffffffffffffffffffffffffffffffff168173ffffffffffffffffffffffffffffffffffffffff1614156104cc576040517f08c379a00000000000000000000000000000000000000000000000000000000081526004016104c390611794565b60405180910390fd5b8073ffffffffffffffffffffffffffffffffffffffff163373ffffffffffffffffffffffffffffffffffffffff161461053a576040517f08c379a000000000000000000000000000000000000000000000000000000000815260040161053190611826565b60405180910390fd5b826005600084815260200190815260200160002060006101000a81548173ffffffffffffffffffffffffffffffffffffffff021916908373ffffffffffffffffffffffffffffffffffffffff160217905550818373ffffffffffffffffffffffffffffffffffffffff168273ffffffffffffffffffffffffffffffffffffffff167f8c5be1e5ebec7d5bd14f71427d1e84f3dd0314c0f7b2291e5b200ac8c7c3b92560405160405180910390a4505050565b6000600680549050905090565b6106033382610b5a565b61060c57600080fd5b610617838383610c27565b505050565b6000610627836107ef565b8210610668576040517f08c379a000000000000000000000000000000000000000000000000000000000815260040161065f906118b8565b60405180910390fd5b600860008473ffffffffffffffffffffffffffffffffffffffff1673ffffffffffffffffffffffffffffffffffffffff16815260200190815260200160002082815481106106b9576106b86118d8565b5b9060005260206000200154905092915050565b60006106d66105ec565b8210610717576040517f08c379a000000000000000000000000000000000000000000000000000000000815260040161070e90611979565b60405180910390fd5b6006828154811061072b5761072a6118d8565b5b90600052602060002001549050919050565b6000806003600084815260200190815260200160002060009054906101000a900473ffffffffffffffffffffffffffffffffffffffff169050600073ffffffffffffffffffffffffffffffffffffffff168173ffffffffffffffffffffffffffffffffffffffff1614156107e6576040517f08c379a00000000000000000000000000000000000000000000000000000000081526004016107dd90611a0b565b60405180910390fd5b80915050919050565b60008073ffffffffffffffffffffffffffffffffffffffff168273ffffffffffffffffffffffffffffffffffffffff161415610860576040517f08c379a000000000000000000000000000000000000000000000000000000000815260040161085790611a0b565b60405180910390fd5b600460008373ffffffffffffffffffffffffffffffffffffffff1673ffffffffffffffffffffffffffffffffffffffff168152602001908152602001600020549050919050565b6060600280546108b69061165e565b80601f01602080910402602001604051908101604052809291908181526020018280546108e29061165e565b801561092f5780601f106109045761010080835404028352916020019161092f565b820191906000526020600020905b81548152906001019060200180831161091257829003601f168201915b5050505050905090565b600a818154811061094957600080fd5b9060005260206000200160009150905080546109649061165e565b80601f01602080910402602001604051908101604052809291908181526020018280546109909061165e565b80156109dd5780601f106109b2576101008083540402835291602001916109dd565b820191906000526020600020905b8154815290600101906020018083116109c057829003601f168201915b505050505081565b600b816040516109f59190611a67565b908152602001604051809103902060009054906101000a900460ff1615610a51576040517f08c379a0000000000000000000000000000000000000000000000000000000008152600401610a4890611af0565b60405180910390fd5b600a81908060018154018082558091505060019003906000526020600020016000909190919091509080519060200190610a8c9291906110af565b5060006001600a80549050610aa19190611b3f565b9050610aad3382610dbf565b6001600b83604051610abf9190611a67565b908152602001604051809103902060006101000a81548160ff0219169083151502179055505050565b6000806003600084815260200190815260200160002060009054906101000a900473ffffffffffffffffffffffffffffffffffffffff169050600073ffffffffffffffffffffffffffffffffffffffff168173ffffffffffffffffffffffffffffffffffffffff161415915050919050565b6000610b6582610ae8565b610ba4576040517f08c379a0000000000000000000000000000000000000000000000000000000008152600401610b9b90611bbf565b60405180910390fd5b6000610baf8361073d565b90508073ffffffffffffffffffffffffffffffffffffffff168473ffffffffffffffffffffffffffffffffffffffff161480610c1e57508373ffffffffffffffffffffffffffffffffffffffff16610c06846103cb565b73ffffffffffffffffffffffffffffffffffffffff16145b91505092915050565b600073ffffffffffffffffffffffffffffffffffffffff168273ffffffffffffffffffffffffffffffffffffffff161415610c97576040517f08c379a0000000000000000000000000000000000000000000000000000000008152600401610c8e90611c51565b60405180910390fd5b8273ffffffffffffffffffffffffffffffffffffffff16610cb78261073d565b73ffffffffffffffffffffffffffffffffffffffff1614610d0d576040517f08c379a0000000000000000000000000000000000000000000000000000000008152600401610d0490611ce3565b60405180910390fd5b816003600083815260200190815260200160002060006101000a81548173ffffffffffffffffffffffffffffffffffffffff021916908373ffffffffffffffffffffffffffffffffffffffff160217905550808273ffffffffffffffffffffffffffffffffffffffff168473ffffffffffffffffffffffffffffffffffffffff167fddf252ad1be2c89b69c2b068fc378daa952ba7f163c4a11628f55a4df523b3ef60405160405180910390a4505050565b610dc98282610de0565b610dd281610fa2565b610ddc8282610feb565b5050565b600073ffffffffffffffffffffffffffffffffffffffff168273ffffffffffffffffffffffffffffffffffffffff161415610e50576040517f08c379a0000000000000000000000000000000000000000000000000000000008152600401610e4790611d75565b60405180910390fd5b610e5981610ae8565b15610e99576040517f08c379a0000000000000000000000000000000000000000000000000000000008152600401610e9090611de1565b60405180910390fd5b816003600083815260200190815260200160002060006101000a81548173ffffffffffffffffffffffffffffffffffffffff021916908373ffffffffffffffffffffffffffffffffffffffff1602179055506001600460008473ffffffffffffffffffffffffffffffffffffffff1673ffffffffffffffffffffffffffffffffffffffff1681526020019081526020016000206000828254610f3b9190611e01565b92505081905550808273ffffffffffffffffffffffffffffffffffffffff16600073ffffffffffffffffffffffffffffffffffffffff167fddf252ad1be2c89b69c2b068fc378daa952ba7f163c4a11628f55a4df523b3ef60405160405180910390a45050565b6006805490506007600083815260200190815260200160002081905550600681908060018154018082558091505060019003906000526020600020016000909190919091505550565b600860008373ffffffffffffffffffffffffffffffffffffffff1673ffffffffffffffffffffffffffffffffffffffff168152602001908152602001600020805490506009600083815260200190815260200160002081905550600860008373ffffffffffffffffffffffffffffffffffffffff1673ffffffffffffffffffffffffffffffffffffffff1681526020019081526020016000208190806001815401808255809150506001900390600052602060002001600090919091909150555050565b8280546110bb9061165e565b90600052602060002090601f0160209004810192826110dd5760008555611124565b82601f106110f657805160ff1916838001178555611124565b82800160010185558215611124579182015b82811115611123578251825591602001919060010190611108565b5b5090506111319190611135565b5090565b5b8082111561114e576000816000905550600101611136565b5090565b6000604051905090565b600080fd5b600080fd5b60007fffffffff0000000000000000000000000000000000000000000000000000000082169050919050565b61119b81611166565b81146111a657600080fd5b50565b6000813590506111b881611192565b92915050565b6000602082840312156111d4576111d361115c565b5b60006111e2848285016111a9565b91505092915050565b60008115159050919050565b611200816111eb565b82525050565b600060208201905061121b60008301846111f7565b92915050565b600081519050919050565b600082825260208201905092915050565b60005b8381101561125b578082015181840152602081019050611240565b8381111561126a576000848401525b50505050565b6000601f19601f8301169050919050565b600061128c82611221565b611296818561122c565b93506112a681856020860161123d565b6112af81611270565b840191505092915050565b600060208201905081810360008301526112d48184611281565b905092915050565b6000819050919050565b6112ef816112dc565b81146112fa57600080fd5b50565b60008135905061130c816112e6565b92915050565b6000602082840312156113285761132761115c565b5b6000611336848285016112fd565b91505092915050565b600073ffffffffffffffffffffffffffffffffffffffff82169050919050565b600061136a8261133f565b9050919050565b61137a8161135f565b82525050565b60006020820190506113956000830184611371565b92915050565b6113a48161135f565b81146113af57600080fd5b50565b6000813590506113c18161139b565b92915050565b600080604083850312156113de576113dd61115c565b5b60006113ec858286016113b2565b92505060206113fd858286016112fd565b9150509250929050565b611410816112dc565b82525050565b600060208201905061142b6000830184611407565b92915050565b60008060006060848603121561144a5761144961115c565b5b6000611458868287016113b2565b9350506020611469868287016113b2565b925050604061147a868287016112fd565b9150509250925092565b60006020828403121561149a5761149961115c565b5b60006114a8848285016113b2565b91505092915050565b600080fd5b600080fd5b7f4e487b7100000000000000000000000000000000000000000000000000000000600052604160045260246000fd5b6114f382611270565b810181811067ffffffffffffffff82111715611512576115116114bb565b5b80604052505050565b6000611525611152565b905061153182826114ea565b919050565b600067ffffffffffffffff821115611551576115506114bb565b5b61155a82611270565b9050602081019050919050565b82818337600083830152505050565b600061158961158484611536565b61151b565b9050828152602081018484840111156115a5576115a46114b6565b5b6115b0848285611567565b509392505050565b600082601f8301126115cd576115cc6114b1565b5b81356115dd848260208601611576565b91505092915050565b6000602082840312156115fc576115fb61115c565b5b600082013567ffffffffffffffff81111561161a57611619611161565b5b611626848285016115b8565b91505092915050565b7f4e487b7100000000000000000000000000000000000000000000000000000000600052602260045260246000fd5b6000600282049050600182168061167657607f821691505b6020821081141561168a5761168961162f565b5b50919050565b7f455243373231202d20617070726f76656420717565727920666f72206e6f6e6560008201527f78697374656e7420746f6b656e00000000000000000000000000000000000000602082015250565b60006116ec602d8361122c565b91506116f782611690565b604082019050919050565b6000602082019050818103600083015261171b816116df565b9050919050565b7f455243373231202d20617070726f76616c20746f2063757272656e74206f776e60008201527f6572000000000000000000000000000000000000000000000000000000000000602082015250565b600061177e60228361122c565b915061178982611722565b604082019050919050565b600060208201905081810360008301526117ad81611771565b9050919050565b7f455243373231202d2063757272656e742063616c6c6572206973206e6f74207460008201527f6865206f776e6572206f662074686520746f6b656e0000000000000000000000602082015250565b600061181060358361122c565b915061181b826117b4565b604082019050919050565b6000602082019050818103600083015261183f81611803565b9050919050565b7f455243373231456e756d65726174696f6e202d206f776e657220696e6465782060008201527f6961206f7574206f6620626f756e647321000000000000000000000000000000602082015250565b60006118a260318361122c565b91506118ad82611846565b604082019050919050565b600060208201905081810360008301526118d181611895565b9050919050565b7f4e487b7100000000000000000000000000000000000000000000000000000000600052603260045260246000fd5b7f455243373231456e756d657261626c65202d20696e646578206973206f75742060008201527f6f6620626f756e64732100000000000000000000000000000000000000000000602082015250565b6000611963602a8361122c565b915061196e82611907565b604082019050919050565b6000602082019050818103600083015261199281611956565b9050919050565b7f4552433732313a20746865206f776e657220616464726573732063616e6e6f7460008201527f2062652030000000000000000000000000000000000000000000000000000000602082015250565b60006119f560258361122c565b9150611a0082611999565b604082019050919050565b60006020820190508181036000830152611a24816119e8565b9050919050565b600081905092915050565b6000611a4182611221565b611a4b8185611a2b565b9350611a5b81856020860161123d565b80840191505092915050565b6000611a738284611a36565b915081905092915050565b7f4572726f723a2074686973207061696e7420616c72656164792065786973747360008201527f2000000000000000000000000000000000000000000000000000000000000000602082015250565b6000611ada60218361122c565b9150611ae582611a7e565b604082019050919050565b60006020820190508181036000830152611b0981611acd565b9050919050565b7f4e487b7100000000000000000000000000000000000000000000000000000000600052601160045260246000fd5b6000611b4a826112dc565b9150611b55836112dc565b925082821015611b6857611b67611b10565b5b828203905092915050565b7f455243373231202d20746f6b656e20646f6573206e6f74206578697374000000600082015250565b6000611ba9601d8361122c565b9150611bb482611b73565b602082019050919050565b60006020820190508181036000830152611bd881611b9c565b9050919050565b7f4572726f72202d20455243373231205472616e7366657220746f20746865207a60008201527f65726f2061646472657373000000000000000000000000000000000000000000602082015250565b6000611c3b602b8361122c565b9150611c4682611bdf565b604082019050919050565b60006020820190508181036000830152611c6a81611c2e565b9050919050565b7f547279696e6720746f207472616e73666572206120746f6b656e20746865206160008201527f64647265737320646f6573206e6f74206f776e21000000000000000000000000602082015250565b6000611ccd60348361122c565b9150611cd882611c71565b604082019050919050565b60006020820190508181036000830152611cfc81611cc0565b9050919050565b7f4552433732313a20746865206d696e7420616464726573732063616e6e6f742060008201527f6265203000000000000000000000000000000000000000000000000000000000602082015250565b6000611d5f60248361122c565b9150611d6a82611d03565b604082019050919050565b60006020820190508181036000830152611d8e81611d52565b9050919050565b7f4552433732313a20746f6b656e20616c72656479206d696e7465640000000000600082015250565b6000611dcb601b8361122c565b9150611dd682611d95565b602082019050919050565b60006020820190508181036000830152611dfa81611dbe565b9050919050565b6000611e0c826112dc565b9150611e17836112dc565b9250827fffffffffffffffffffffffffffffffffffffffffffffffffffffffffffffffff03821115611e4c57611e4b611b10565b5b82820190509291505056fea2646970667358221220f941f9286d80bb689b574d85923f73e4a502d416b2e8c77fd3a09be92ef61eb064736f6c634300080b0033",
  "immutableReferences": {},
  "source": "// SPDX-License-Identifier: MIT\npragma solidity ^0.8.0;\n\nimport \"./ERC721Connector.sol\";\n\ncontract KryptoBird is ERC721Connector {\n    //array to store nfts\n    string[] public kryptoPaintz;\n\n    mapping(string => bool) _kryptoPaintzExists;\n\n    function mint(string memory _kryptoPaint) public {\n\n        require(!_kryptoPaintzExists[_kryptoPaint], \n        \"Error: this paint already exists \");\n\n        kryptoPaintz.push(_kryptoPaint);\n        uint256 _id = kryptoPaintz.length - 1;\n        _mint(msg.sender, _id);\n\n        _kryptoPaintzExists[_kryptoPaint] = true;\n    }\n\n    constructor() ERC721Connector(\"KryptoPaint\", \"KPAINTZ\") {}\n}\n",
  "sourcePath": "C:\\SYNE\\marketplace\\nft-marketplace\\src\\contracts\\KryptoBirdz.sol",
  "compiler": {
    "name": "solc",
    "version": "0.8.11+commit.d7f03943.Emscripten.clang"
  },
  "schemaVersion": "3.4.3",
  "updatedAt": "2021-12-23T10:39:20.215Z",
  "networkType": "ethereum",
  "devdoc": {
    "kind": "dev",
    "methods": {
      "balanceOf(address)": {
        "details": "NFTs assigned to the zero address are considered invalid, and this  function throws for queries about the zero address.",
        "params": {
          "_owner": "An address for whom to query the balance"
        },
        "returns": {
          "_0": "The number of NFTs owned by `_owner`, possibly zero"
        }
      },
      "ownerOf(uint256)": {
        "details": "NFTs assigned to zero address are considered invalid, and queries  about them do throw.",
        "params": {
          "_tokenId": "The identifier for an NFT"
        },
        "returns": {
          "_0": "The address of the owner of the NFT"
        }
      },
      "transferFrom(address,address,uint256)": {
        "details": "Throws unless `msg.sender` is the current owner, an authorized  operator, or the approved address for this NFT. Throws if `_from` is  not the current owner. Throws if `_to` is the zero address. Throws if  `_tokenId` is not a valid NFT.",
        "params": {
          "_from": "The current owner of the NFT",
          "_to": "The new owner",
          "_tokenId": "The NFT to transfer"
        }
      }
    },
    "version": 1
  },
  "userdoc": {
    "kind": "user",
    "methods": {
      "balanceOf(address)": {
        "notice": "Count all NFTs assigned to an owner"
      },
      "ownerOf(uint256)": {
        "notice": "Find the owner of an NFT"
      },
      "transferFrom(address,address,uint256)": {
        "notice": "Transfer ownership of an NFT -- THE CALLER IS RESPONSIBLE  TO CONFIRM THAT `_to` IS CAPABLE OF RECEIVING NFTS OR ELSE  THEY MAY BE PERMANENTLY LOST"
      }
    },
    "version": 1
  }
}